:100000000C942A000C94E4020C9447000C944700D2
:100010000C9447000C9447000C942B040C9404049B
:100020000C9447000C94DF030C9490030C943E0353
:100030000C9447000C9447000C9447000C94470024
:100040000C940B030C9447000C9447000C9447004D
:100050000C94470011241FBECFE5D8E0DEBFCDBF12
:1000600010E0A0E6B0E0E0EFFAE002C005900D92EB
:10007000A437B107D9F720E0A4E7B0E001C01D9292
:10008000A53AB207E1F70E9449000C9476050C945A
:1000900000000E94A30481E00E94D8020E94CF00C9
:1000A00061E080E00E94EA010E940F020E941202B9
:1000B0006B017C018EE690E00E944901C701B60108
:1000C0000E94650183E60E94EB002FEF89E698E12C
:1000D000215080409040E1F700C000000E940502DE
:1000E000E5CFCF93C82F60E081E00E94510260E02D
:1000F00082E00E945102C4FB662760F983E00E94FF
:100100005102C5FB662760F984E00E945102C6FBDC
:10011000662760F985E00E9451026C2F661F6627F2
:10012000661F86E00E94510261E082E00E94510257
:100130008FE99FE00197F1F700C0000060E082E0E6
:100140000E9451026C2F617083E00E945102C1FB3A
:10015000662760F984E00E945102C2FB662760F9BD
:1001600085E00E945102C3FB662760F986E00E9489
:10017000510261E082E00E9451028FE99FE0019705
:10018000F1F700C0000060E082E00E9451028FE1C0
:100190009EE40197F1F700C00000CF91089583E33A
:1001A0000E94710082E30E94710088E20E94710047
:1001B00081E00E94710086E00E9471008CE00E9444
:1001C000710082E00E9471008FE19EE40197F1F7D7
:1001D00000C000000895CF93C82F61E081E00E9425
:1001E000510260E082E00E945102C4FB662760F980
:1001F00083E00E945102C5FB662760F984E00E94FB
:100200005102C6FB662760F985E00E9451026C2FFF
:10021000661F6627661F86E00E94510261E082E049
:100220000E9451028FE99FE00197F1F700C00000A2
:1002300060E082E00E9451026C2F617083E00E94B6
:100240005102C1FB662760F984E00E945102C2FBA3
:10025000662760F985E00E945102C3FB662760F9BA
:1002600086E00E94510261E082E00E9451028FE923
:100270009FE00197F1F700C0000060E082E00E947B
:1002800051028FE19EE40197F1F700C00000CF9189
:1002900008950F931F93CF93FC018081882359F019
:1002A0008F01C0E00E94EB00CF5FF801EC0FF11D61
:1002B00080818111F7CF8FE19EE40197F1F700C0B3
:1002C0000000CF911F910F9108958F929F92AF924E
:1002D000BF92CF92DF92EF92FF920F931F938B0109
:1002E0009C01611571058105910521F480E30E944F
:1002F000EB005FC0992334F016161706180619068E
:100300002CF057C08DE20E94EB0053C061E070E01A
:1003100080E090E00F2EFAE08F2E912CA12CB12CD2
:10032000F02DDC01CB01880F991FAA1FBB1F6C01A8
:100330007D01CC0CDD1CEE1CFF1CCC0CDD1CEE1C6E
:10034000FF1CC80ED91EEA1EFB1EC901B801A5017B
:1003500094010E9448056C0D7D1D8E1D9F1D022F6E
:10036000132F242F352F1016110612061306CCF268
:100370006230710581059105E4F00F2EFAE08F2EB1
:10038000912CA12CB12CF02DA50194010E944805BF
:10039000E22EF32E042F152F80E3860F0E94EB0030
:1003A0006E2D7F2D802F912F623071058105910573
:1003B0005CF78FE19EE40197F1F700C000001F9108
:1003C0000F91FF90EF90DF90CF90BF90AF909F90F4
:1003D0008F900895CF93DF9300D0CDB7DEB790E82C
:1003E000998390EC9A83FE01E80FF11D8181860FBD
:1003F0000E9471008FE19EE40197F1F700C00000B8
:100400000F900F90DF91CF91089581E00E947100CD
:100410008FE19EE40197F1F700C0000008950E946B
:10042000250208950E94340260918D0070918E0023
:1004300080918F00909190002AE030E040E050E001
:100440000E942605CA01B90108953E9A3F9887B1D6
:10045000876087B9359A80B780BF86B1876086B9D3
:1004600033983D98379A0895369A349BFECF24B13D
:1004700035B1A8E8B3E10E946705DC01CB01072E86
:100480007AE0B695A795979587957A95D1F7702DCF
:1004900080938D0090938E00A0938F00B093900076
:1004A0000895982F9695969596958770662309F4EA
:1004B0003FC0613009F07BC0913099F028F0923054
:1004C000E9F0933041F108954BB321E030E0B901F8
:1004D00002C0660F771F8A95E2F7CB01842B8BBB96
:1004E000089548B321E030E0B90102C0660F771FDC
:1004F0008A95E2F7CB01842B88BB089545B321E0B0
:1005000030E0B90102C0660F771F8A95E2F7CB0190
:10051000842B85BB089542B321E030E0B90102C0CD
:10052000660F771F8A95E2F7CB01842B82BB089573
:100530009130A1F028F09230F9F0933059F10895FC
:100540004BB321E030E0B90102C0660F771F8A95F6
:10055000E2F7CB01809584238BBB089548B321E05B
:1005600030E0B90102C0660F771F8A95E2F7CB0130
:100570008095842388BB089545B321E030E0B9011C
:1005800002C0660F771F8A95E2F7CB01809584231E
:1005900085BB089542B321E030E0B90102C0660F87
:1005A000771F8A95E2F7CB018095842382BB08955B
:1005B000882331F0813039F48FB780688FBF089578
:1005C0008FB78F778FBF08951F920F920FB60F923C
:1005D00011242F933F934F935F936F937F938F9348
:1005E0009F93AF93BF93EF93FF93E0918B00F091B4
:1005F0008C000995FF91EF91BF91AF919F918F91E1
:100600007F916F915F914F913F912F910F900FBE0E
:100610000F901F9018951F920F920FB60F921124F2
:100620002F933F934F935F938F939F93AF93BF937A
:1006300044B155B128E833E1429FC001439F900D7A
:10064000529F900D1124892F992786958695A0E0B9
:10065000B0E080938D0090938E00A0938F00B093B4
:100660009000BF91AF919F918F915F914F913F917A
:100670002F910F900FBE0F901F9018951F920F9201
:100680000FB60F9211242F933F934F935F936F9365
:100690007F938F939F93AF93BF93EF93FF9380913B
:1006A000850090918600A0918700B0918800019606
:1006B000A11DB11D8093850090938600A0938700B3
:1006C000B0938800409195005091960060919700FA
:1006D0007091980084179507A607B70781F4E091F9
:1006E0008900F0918A000995109285001092860089
:1006F000109287001092880080919D0082BFFF9128
:10070000EF91BF91AF919F918F917F916F915F9189
:100710004F913F912F910F900FBE0F901F90189502
:100720001F920F920FB60F9211242F933F934F9366
:100730005F936F937F938F939F93AF93BF93EF9349
:10074000FF938091810090918200A0918300B091ED
:1007500084000196A11DB11D8093810090938200B9
:10076000A0938300B0938400409191005091920037
:10077000609193007091940084179507A607B707BE
:1007800069F4E0918900F0918A0009951092810046
:10079000109282001092830010928400FF91EF91DA
:1007A000BF91AF919F918F917F916F915F914F9189
:1007B0003F912F910F900FBE0F901F9018951F9291
:1007C0000F920FB60F9211248F939F93AF93BF9305
:1007D0008091990090919A00A0919B00B0919C000B
:1007E0000196A11DB11D8093990090939A00A0934A
:1007F0009B00B0939C00BF91AF919F918F910F9000
:100800000FBE0F901F9018951F920F920FB60F9268
:1008100011242F933F934F935F936F937F938F9305
:100820009F93AF93BF93EF93FF93E0918900F09173
:100830008A000995FF91EF91BF91AF919F918F91A0
:100840007F916F915F914F913F912F910F900FBECC
:100850000F901F9018951F920F920FB60F921124B0
:100860002F933F938F939F93AF93BF938091740087
:100870008F5F80937400809174008130C1F486B5DD
:1008800097B5A0E0B0E080937D0090937E00A093A8
:100890007F00B09380001092990010929A001092FD
:1008A0009B0010929C008EB58F7B8EBD41C08091C5
:1008B00074008230E9F426B537B5809199009091A3
:1008C0009A00A0919B00B0919C00DC019927882799
:1008D000820F931FA11DB11D8093790090937A0020
:1008E000A0937B00B0937C008EB580648EBD20C049
:1008F000809174008330E1F426B537B5809199007A
:1009000090919A00A0919B00B0919C00DC019927E6
:100910008827820F931FA11DB11D809375009093AE
:100920007600A0937700B093780089B78F7D89BF58
:10093000BF91AF919F918F913F912F910F900FBEDB
:100940000F901F901895E0E6F0E04EE650E061E071
:1009500070E08081982F9695969596958770218165
:10096000222319F02130C9F16BC0913091F028F0A9
:100970009230D9F0933029F163C09AB39B0102C041
:10098000220F331F8A95E2F7822F809589238ABB35
:1009900057C097B39B0102C0220F331F8A95E2F71D
:1009A000822F8095892387BB4BC094B39B0102C0E3
:1009B000220F331F8A95E2F7822F8095892384BB0B
:1009C0003FC091B39B0102C0220F331F8A95E2F70B
:1009D000822F8095892381BB33C0913089F028F024
:1009E0009230C9F0933011F12BC02AB3DB0102C061
:1009F000AA0FBB1F8A95E2F7CD01822B8ABB20C0CC
:100A000027B3DB0102C0AA0FBB1F8A95E2F7CD0115
:100A1000822B87BB15C024B3DB0102C0AA0FBB1F0A
:100A20008A95E2F7CD01822B84BB0AC021B3DB019A
:100A300002C0AA0FBB1F8A95E2F7CD01822B81BBB2
:100A40003296E417F50709F084CF0895A1E21A2E33
:100A5000AA1BBB1BFD010DC0AA1FBB1FEE1FFF1F62
:100A6000A217B307E407F50720F0A21BB30BE40BB2
:100A7000F50B661F771F881F991F1A9469F76095F9
:100A80007095809590959B01AC01BD01CF010895B3
:100A9000052E97FB1EF400940E945F0557FD07D0BA
:100AA0000E94260507FC03D04EF40C945F05509578
:100AB0004095309521953F4F4F4F5F4F089590954A
:100AC0008095709561957F4F8F4F9F4F0895A29F9E
:100AD000B001B39FC001A39F700D811D1124911D12
:100AE000B29F700D811D1124911D0895F894FFCFC0
:100AF000010102010301040105010601070054651B
:040B00006D703A00DA
:00000001FF
